{
    "_format": "hh-sol-artifact-1",
    "contractName": "Transactions",
    "sourceName": "contracts/Transactions.sol",
    "abi": [
        {
            "anonymous": false,
            "inputs": [
                {
                    "indexed": false,
                    "internalType": "address",
                    "name": "sendFrom",
                    "type": "address"
                },
                {
                    "indexed": false,
                    "internalType": "address",
                    "name": "sendTo",
                    "type": "address"
                },
                {
                    "indexed": false,
                    "internalType": "uint256",
                    "name": "amount",
                    "type": "uint256"
                },
                {
                    "indexed": false,
                    "internalType": "uint256",
                    "name": "timeStamp",
                    "type": "uint256"
                },
                {
                    "indexed": false,
                    "internalType": "string",
                    "name": "message",
                    "type": "string"
                },
                {
                    "indexed": false,
                    "internalType": "string",
                    "name": "keyword",
                    "type": "string"
                }
            ],
            "name": "Transfer",
            "type": "event"
        },
        {
            "inputs": [
                {
                    "internalType": "address payable",
                    "name": "reciever",
                    "type": "address"
                },
                {
                    "internalType": "uint256",
                    "name": "amount",
                    "type": "uint256"
                },
                {
                    "internalType": "string",
                    "name": "message",
                    "type": "string"
                },
                {
                    "internalType": "string",
                    "name": "keyword",
                    "type": "string"
                }
            ],
            "name": "addBlock",
            "outputs": [],
            "stateMutability": "nonpayable",
            "type": "function"
        },
        {
            "inputs": [],
            "name": "getTransactionsHistory",
            "outputs": [
                {
                    "components": [
                        {
                            "internalType": "address",
                            "name": "sender",
                            "type": "address"
                        },
                        {
                            "internalType": "address",
                            "name": "reciever",
                            "type": "address"
                        },
                        {
                            "internalType": "uint256",
                            "name": "amount",
                            "type": "uint256"
                        },
                        {
                            "internalType": "uint256",
                            "name": "timeStamp",
                            "type": "uint256"
                        },
                        {
                            "internalType": "string",
                            "name": "message",
                            "type": "string"
                        },
                        {
                            "internalType": "string",
                            "name": "keyword",
                            "type": "string"
                        },
                        {
                            "internalType": "uint256",
                            "name": "blocknumber",
                            "type": "uint256"
                        }
                    ],
                    "internalType": "struct Transactions.TransferDetails[]",
                    "name": "",
                    "type": "tuple[]"
                }
            ],
            "stateMutability": "view",
            "type": "function"
        },
        {
            "inputs": [],
            "name": "transactionCount",
            "outputs": [
                {
                    "internalType": "uint256",
                    "name": "",
                    "type": "uint256"
                }
            ],
            "stateMutability": "view",
            "type": "function"
        }
    ],
    "bytecode": "0x608060405234801561001057600080fd5b50610e39806100206000396000f3fe608060405234801561001057600080fd5b50600436106100415760003560e01c80633df08d66146100465780637e2abcd014610064578063b77bf60014610080575b600080fd5b61004e61009e565b60405161005b9190610707565b60405180910390f35b61007e600480360381019061007991906108dc565b6102eb565b005b6100886104af565b604051610095919061098a565b60405180910390f35b60606001805480602002602001604051908101604052809291908181526020016000905b828210156102e257838290600052602060002090600702016040518060e00160405290816000820160009054906101000a900473ffffffffffffffffffffffffffffffffffffffff1673ffffffffffffffffffffffffffffffffffffffff1673ffffffffffffffffffffffffffffffffffffffff1681526020016001820160009054906101000a900473ffffffffffffffffffffffffffffffffffffffff1673ffffffffffffffffffffffffffffffffffffffff1673ffffffffffffffffffffffffffffffffffffffff16815260200160028201548152602001600382015481526020016004820180546101b5906109d4565b80601f01602080910402602001604051908101604052809291908181526020018280546101e1906109d4565b801561022e5780601f106102035761010080835404028352916020019161022e565b820191906000526020600020905b81548152906001019060200180831161021157829003601f168201915b50505050508152602001600582018054610247906109d4565b80601f0160208091040260200160405190810160405280929190818152602001828054610273906109d4565b80156102c05780601f10610295576101008083540402835291602001916102c0565b820191906000526020600020905b8154815290600101906020018083116102a357829003601f168201915b50505050508152602001600682015481525050815260200190600101906100c2565b50505050905090565b60016000808282546102fd9190610a34565b9250508190555060016040518060e001604052803373ffffffffffffffffffffffffffffffffffffffff1681526020018673ffffffffffffffffffffffffffffffffffffffff16815260200185815260200142815260200184815260200183815260200143815250908060018154018082558091505060019003906000526020600020906007020160009091909190915060008201518160000160006101000a81548173ffffffffffffffffffffffffffffffffffffffff021916908373ffffffffffffffffffffffffffffffffffffffff16021790555060208201518160010160006101000a81548173ffffffffffffffffffffffffffffffffffffffff021916908373ffffffffffffffffffffffffffffffffffffffff160217905550604082015181600201556060820151816003015560808201518160040190816104459190610c14565b5060a082015181600501908161045b9190610c14565b5060c0820151816006015550507f1e92c3b94e87106bb5e1f3493c1debe5003450085b72f643a2839c3e4dd25eb63385854286866040516104a196959493929190610d94565b60405180910390a150505050565b60008054905090565b600081519050919050565b600082825260208201905092915050565b6000819050602082019050919050565b600073ffffffffffffffffffffffffffffffffffffffff82169050919050565b600061050f826104e4565b9050919050565b61051f81610504565b82525050565b6000819050919050565b61053881610525565b82525050565b600081519050919050565b600082825260208201905092915050565b60005b8381101561057857808201518184015260208101905061055d565b60008484015250505050565b6000601f19601f8301169050919050565b60006105a08261053e565b6105aa8185610549565b93506105ba81856020860161055a565b6105c381610584565b840191505092915050565b600060e0830160008301516105e66000860182610516565b5060208301516105f96020860182610516565b50604083015161060c604086018261052f565b50606083015161061f606086018261052f565b50608083015184820360808601526106378282610595565b91505060a083015184820360a08601526106518282610595565b91505060c083015161066660c086018261052f565b508091505092915050565b600061067d83836105ce565b905092915050565b6000602082019050919050565b600061069d826104b8565b6106a781856104c3565b9350836020820285016106b9856104d4565b8060005b858110156106f557848403895281516106d68582610671565b94506106e183610685565b925060208a019950506001810190506106bd565b50829750879550505050505092915050565b600060208201905081810360008301526107218184610692565b905092915050565b6000604051905090565b600080fd5b600080fd5b6000610748826104e4565b9050919050565b6107588161073d565b811461076357600080fd5b50565b6000813590506107758161074f565b92915050565b61078481610525565b811461078f57600080fd5b50565b6000813590506107a18161077b565b92915050565b600080fd5b600080fd5b7f4e487b7100000000000000000000000000000000000000000000000000000000600052604160045260246000fd5b6107e982610584565b810181811067ffffffffffffffff82111715610808576108076107b1565b5b80604052505050565b600061081b610729565b905061082782826107e0565b919050565b600067ffffffffffffffff821115610847576108466107b1565b5b61085082610584565b9050602081019050919050565b82818337600083830152505050565b600061087f61087a8461082c565b610811565b90508281526020810184848401111561089b5761089a6107ac565b5b6108a684828561085d565b509392505050565b600082601f8301126108c3576108c26107a7565b5b81356108d384826020860161086c565b91505092915050565b600080600080608085870312156108f6576108f5610733565b5b600061090487828801610766565b945050602061091587828801610792565b935050604085013567ffffffffffffffff81111561093657610935610738565b5b610942878288016108ae565b925050606085013567ffffffffffffffff81111561096357610962610738565b5b61096f878288016108ae565b91505092959194509250565b61098481610525565b82525050565b600060208201905061099f600083018461097b565b92915050565b7f4e487b7100000000000000000000000000000000000000000000000000000000600052602260045260246000fd5b600060028204905060018216806109ec57607f821691505b6020821081036109ff576109fe6109a5565b5b50919050565b7f4e487b7100000000000000000000000000000000000000000000000000000000600052601160045260246000fd5b6000610a3f82610525565b9150610a4a83610525565b9250828201905080821115610a6257610a61610a05565b5b92915050565b60008190508160005260206000209050919050565b60006020601f8301049050919050565b600082821b905092915050565b600060088302610aca7fffffffffffffffffffffffffffffffffffffffffffffffffffffffffffffffff82610a8d565b610ad48683610a8d565b95508019841693508086168417925050509392505050565b6000819050919050565b6000610b11610b0c610b0784610525565b610aec565b610525565b9050919050565b6000819050919050565b610b2b83610af6565b610b3f610b3782610b18565b848454610a9a565b825550505050565b600090565b610b54610b47565b610b5f818484610b22565b505050565b5b81811015610b8357610b78600082610b4c565b600181019050610b65565b5050565b601f821115610bc857610b9981610a68565b610ba284610a7d565b81016020851015610bb1578190505b610bc5610bbd85610a7d565b830182610b64565b50505b505050565b600082821c905092915050565b6000610beb60001984600802610bcd565b1980831691505092915050565b6000610c048383610bda565b9150826002028217905092915050565b610c1d8261053e565b67ffffffffffffffff811115610c3657610c356107b1565b5b610c4082546109d4565b610c4b828285610b87565b600060209050601f831160018114610c7e5760008415610c6c578287015190505b610c768582610bf8565b865550610cde565b601f198416610c8c86610a68565b60005b82811015610cb457848901518255600182019150602085019450602081019050610c8f565b86831015610cd15784890151610ccd601f891682610bda565b8355505b6001600288020188555050505b505050505050565b610cef81610504565b82525050565b6000610d10610d0b610d06846104e4565b610aec565b6104e4565b9050919050565b6000610d2282610cf5565b9050919050565b6000610d3482610d17565b9050919050565b610d4481610d29565b82525050565b600082825260208201905092915050565b6000610d668261053e565b610d708185610d4a565b9350610d8081856020860161055a565b610d8981610584565b840191505092915050565b600060c082019050610da96000830189610ce6565b610db66020830188610d3b565b610dc3604083018761097b565b610dd0606083018661097b565b8181036080830152610de28185610d5b565b905081810360a0830152610df68184610d5b565b905097965050505050505056fea2646970667358221220c7be26a1720c27eab523cb84765e6767c29d729661154c0301ef6fd7c02ba72764736f6c63430008110033",
    "linkReferences": {},
    "deployedLinkReferences": {}
}